{
  "_format": "hh-sol-artifact-1",
  "contractName": "CrowdFund",
  "sourceName": "contracts/CrowdFund.sol",
  "abi": [
    {
      "inputs": [],
      "stateMutability": "nonpayable",
      "type": "constructor"
    },
    {
      "anonymous": false,
      "inputs": [
        {
          "indexed": false,
          "internalType": "address",
          "name": "editor",
          "type": "address"
        },
        {
          "indexed": false,
          "internalType": "uint256",
          "name": "Goal",
          "type": "uint256"
        }
      ],
      "name": "changeGoal",
      "type": "event"
    },
    {
      "anonymous": false,
      "inputs": [
        {
          "indexed": false,
          "internalType": "address",
          "name": "editor",
          "type": "address"
        },
        {
          "indexed": false,
          "internalType": "bool",
          "name": "change",
          "type": "bool"
        }
      ],
      "name": "changeState",
      "type": "event"
    },
    {
      "inputs": [
        {
          "internalType": "bool",
          "name": "change",
          "type": "bool"
        }
      ],
      "name": "changeProjectState",
      "outputs": [],
      "stateMutability": "nonpayable",
      "type": "function"
    },
    {
      "inputs": [],
      "name": "fundproject",
      "outputs": [],
      "stateMutability": "payable",
      "type": "function"
    },
    {
      "inputs": [
        {
          "internalType": "uint256",
          "name": "goal",
          "type": "uint256"
        }
      ],
      "name": "setGoal",
      "outputs": [],
      "stateMutability": "nonpayable",
      "type": "function"
    },
    {
      "inputs": [],
      "name": "viewGoal",
      "outputs": [
        {
          "internalType": "uint256",
          "name": "",
          "type": "uint256"
        }
      ],
      "stateMutability": "view",
      "type": "function"
    },
    {
      "inputs": [],
      "name": "viewRemaining",
      "outputs": [
        {
          "internalType": "uint256",
          "name": "",
          "type": "uint256"
        }
      ],
      "stateMutability": "view",
      "type": "function"
    }
  ],
  "bytecode": "0x608060405234801561001057600080fd5b506001808190555033600360006101000a81548173ffffffffffffffffffffffffffffffffffffffff021916908373ffffffffffffffffffffffffffffffffffffffff160217905550600060028190555060016000806101000a81548160ff0219169083151502179055506106ed8061008a6000396000f3fe60806040526004361061004a5760003560e01c8063320d7c851461004f5780634b29c448146100595780639aeb5d4814610094578063f2777e55146100bf578063f58754f8146100ea575b600080fd5b610057610127565b005b34801561006557600080fd5b506100926004803603602081101561007c57600080fd5b81019080803590602001909291905050506102b1565b005b3480156100a057600080fd5b506100a96103b6565b6040518082815260200191505060405180910390f35b3480156100cb57600080fd5b506100d46103c9565b6040518082815260200191505060405180910390f35b3480156100f657600080fd5b506101256004803603602081101561010d57600080fd5b810190808035151590602001909291905050506103d3565b005b60008054906101000a900460ff1661018a576040517f08c379a00000000000000000000000000000000000000000000000000000000081526004018080602001828103825260428152602001806105966042913960600191505060405180910390fd5b600154600254106101e6576040517f08c379a000000000000000000000000000000000000000000000000000000000815260040180806020018281038252603f815260200180610557603f913960400191505060405180910390fd5b6000341415610240576040517f08c379a00000000000000000000000000000000000000000000000000000000081526004018080602001828103825260378152602001806106816037913960400191505060405180910390fd5b6001543460025401111561029f576040517f08c379a000000000000000000000000000000000000000000000000000000000815260040180806020018281038252603d8152602001806105d8603d913960400191505060405180910390fd5b34600260008282540192505081905550565b600360009054906101000a900473ffffffffffffffffffffffffffffffffffffffff1673ffffffffffffffffffffffffffffffffffffffff163373ffffffffffffffffffffffffffffffffffffffff1614610357576040517f08c379a000000000000000000000000000000000000000000000000000000000815260040180806020018281038252603e815260200180610615603e913960400191505060405180910390fd5b806001819055507f9fd7164b22f4c7f3b4ca3206d3cadc548895cb97ab34eae3bc6500cf2f6836743382604051808373ffffffffffffffffffffffffffffffffffffffff1681526020018281526020019250505060405180910390a150565b6000806002546001540390508091505090565b6000600154905090565b600360009054906101000a900473ffffffffffffffffffffffffffffffffffffffff1673ffffffffffffffffffffffffffffffffffffffff163373ffffffffffffffffffffffffffffffffffffffff1614610479576040517f08c379a000000000000000000000000000000000000000000000000000000000815260040180806020018281038252603e815260200180610615603e913960400191505060405180910390fd5b80151560008054906101000a900460ff16151514156104e3576040517f08c379a000000000000000000000000000000000000000000000000000000000815260040180806020018281038252602e815260200180610653602e913960400191505060405180910390fd5b806000806101000a81548160ff0219169083151502179055507f0d062d331c88f69c7b76cfcc8ae5e860382d00ffd8154597d23aff3e8204e9ce3382604051808373ffffffffffffffffffffffffffffffffffffffff16815260200182151581526020019250505060405180910390a15056fe476f616c20616c726561647920616368696576656420736f20796f752061726520206e6f742061626c6520746f2066756e64207468697320616e796d6f72654f776e657220686173206465636964656420746f2073746f7020746869732066756e6472616973696e6720666f722061207768696c652e20537461792074756e6564756e61626c6520746f20616464206d6f72652066756e64732c20636865636b20616d6f756e742072656d61696e696e6720666f72206f757220676f616c596f75206e65656420746f20626520746865206f776e65722066726f6d207468697320636f6e747261637420746f206368616e67652074686520676f616c43616e206e6f74206368616e6765207468652073746174652077697468207468652061637475616c207374617465506c656173652061646420736f6d652066756e647320746f2020636f6e747269627569746520746f20506c61747a692070726f6a656374a26469706673582212205f90465bacbdccf9700be9ab8e68a0d2624597009397dae5cb808acbc72fb89a64736f6c63430007030033",
  "linkReferences": {},
  "deployedLinkReferences": {}
}